{
  "address": "0xb7E8C35609CA73277b2207D07B51c9Ac5798b380",
  "abi": [
    {
      "inputs": [
        {
          "internalType": "contract ITokenBridge",
          "name": "_tbridge",
          "type": "address"
        }
      ],
      "stateMutability": "nonpayable",
      "type": "constructor"
    },
    {
      "inputs": [
        {
          "internalType": "bytes32",
          "name": "destination",
          "type": "bytes32"
        }
      ],
      "name": "testTransfer",
      "outputs": [],
      "stateMutability": "payable",
      "type": "function"
    },
    {
      "inputs": [
        {
          "internalType": "bytes32",
          "name": "destination",
          "type": "bytes32"
        },
        {
          "internalType": "bytes",
          "name": "payload",
          "type": "bytes"
        }
      ],
      "name": "testTransferWithPayload",
      "outputs": [],
      "stateMutability": "nonpayable",
      "type": "function"
    }
  ],
  "transactionHash": "0x06c66b48eb6094bf6fe1e8c6b2436614653273c7baa4b17caf1c17afa1b7a292",
  "args": [
    "0x599CEa2204B4FaECd584Ab1F2b6aCA137a0afbE8"
  ],
  "numDeployments": 1,
  "solcInputHash": "7ade14e98f2ae03b8f34ff7520d62285",
  "bytecode": "0x608060405234801561001057600080fd5b50604051610837380380610837833981810160405281019061003291906100ed565b806000806101000a81548173ffffffffffffffffffffffffffffffffffffffff021916908373ffffffffffffffffffffffffffffffffffffffff1602179055505061011a565b600080fd5b600073ffffffffffffffffffffffffffffffffffffffff82169050919050565b60006100a88261007d565b9050919050565b60006100ba8261009d565b9050919050565b6100ca816100af565b81146100d557600080fd5b50565b6000815190506100e7816100c1565b92915050565b60006020828403121561010357610102610078565b5b6000610111848285016100d8565b91505092915050565b61070e806101296000396000f3fe6080604052600436106100295760003560e01c8063082e46601461002e5780632f60f7051461004a575b600080fd5b61004860048036038101906100439190610235565b610073565b005b34801561005657600080fd5b50610071600480360381019061006c91906103a8565b610139565b005b60008054906101000a900473ffffffffffffffffffffffffffffffffffffffff1673ffffffffffffffffffffffffffffffffffffffff1663bee9cdfc3460108460016040516020016100c4906104d3565b6040516020818303038152906040526040518663ffffffff1660e01b81526004016100f2949392919061061f565b60206040518083038185885af1158015610110573d6000803e3d6000fd5b50505050506040513d601f19601f8201168201806040525081019061013591906106ab565b5050565b60008054906101000a900473ffffffffffffffffffffffffffffffffffffffff1673ffffffffffffffffffffffffffffffffffffffff1663bee9cdfc670de0b6b3a76400006010856001866040518663ffffffff1660e01b81526004016101a3949392919061061f565b60206040518083038185885af11580156101c1573d6000803e3d6000fd5b50505050506040513d601f19601f820116820180604052508101906101e691906106ab565b505050565b6000604051905090565b600080fd5b600080fd5b6000819050919050565b610212816101ff565b811461021d57600080fd5b50565b60008135905061022f81610209565b92915050565b60006020828403121561024b5761024a6101f5565b5b600061025984828501610220565b91505092915050565b600080fd5b600080fd5b6000601f19601f8301169050919050565b7f4e487b7100000000000000000000000000000000000000000000000000000000600052604160045260246000fd5b6102b58261026c565b810181811067ffffffffffffffff821117156102d4576102d361027d565b5b80604052505050565b60006102e76101eb565b90506102f382826102ac565b919050565b600067ffffffffffffffff8211156103135761031261027d565b5b61031c8261026c565b9050602081019050919050565b82818337600083830152505050565b600061034b610346846102f8565b6102dd565b90508281526020810184848401111561036757610366610267565b5b610372848285610329565b509392505050565b600082601f83011261038f5761038e610262565b5b813561039f848260208601610338565b91505092915050565b600080604083850312156103bf576103be6101f5565b5b60006103cd85828601610220565b925050602083013567ffffffffffffffff8111156103ee576103ed6101fa565b5b6103fa8582860161037a565b9150509250929050565b600082825260208201905092915050565b7f7b2022706172656e7473223a20312c2022696e746572696f72223a207b20225860008201527f32223a205b207b202250617261636861696e223a20383838207d2c207b20224160208201527f63636f756e744b65793230223a2022307833353442313044343765383441303060408201527f3662394537653636413232394431373445384646324130363322207d205d7d7d606082015250565b60006104bd608083610404565b91506104c882610415565b608082019050919050565b600060208201905081810360008301526104ec816104b0565b9050919050565b6000819050919050565b600061ffff82169050919050565b6000819050919050565b600061053061052b610526846104f3565b61050b565b6104fd565b9050919050565b61054081610515565b82525050565b61054f816101ff565b82525050565b6000819050919050565b600063ffffffff82169050919050565b600061058a61058561058084610555565b61050b565b61055f565b9050919050565b61059a8161056f565b82525050565b600081519050919050565b600082825260208201905092915050565b60005b838110156105da5780820151818401526020810190506105bf565b60008484015250505050565b60006105f1826105a0565b6105fb81856105ab565b935061060b8185602086016105bc565b6106148161026c565b840191505092915050565b60006080820190506106346000830187610537565b6106416020830186610546565b61064e6040830185610591565b818103606083015261066081846105e6565b905095945050505050565b600067ffffffffffffffff82169050919050565b6106888161066b565b811461069357600080fd5b50565b6000815190506106a58161067f565b92915050565b6000602082840312156106c1576106c06101f5565b5b60006106cf84828501610696565b9150509291505056fea2646970667358221220c883292b8b48a128966fe555a2ebb9b24f56c952d671ea0e8306ba794d66191964736f6c63430008120033",
  "devdoc": {
    "kind": "dev",
    "methods": {},
    "version": 1
  },
  "userdoc": {
    "kind": "user",
    "methods": {},
    "version": 1
  },
  "storageLayout": {
    "storage": [
      {
        "astId": 83,
        "contract": "contracts/TokenTransferTest.sol:TokenTransferTest",
        "label": "tbridge",
        "offset": 0,
        "slot": "0",
        "type": "t_contract(ITokenBridge)535"
      }
    ],
    "types": {
      "t_contract(ITokenBridge)535": {
        "encoding": "inplace",
        "label": "contract ITokenBridge",
        "numberOfBytes": "20"
      }
    }
  }
}