{
  "address": "0x87f6Fec8625BaC3efDAF537C3C8058C1a88d9467",
  "abi": [
    {
      "inputs": [
        {
          "internalType": "contract ITokenBridge",
          "name": "_tbridge",
          "type": "address"
        }
      ],
      "stateMutability": "nonpayable",
      "type": "constructor"
    },
    {
      "anonymous": false,
      "inputs": [
        {
          "indexed": false,
          "internalType": "bytes",
          "name": "",
          "type": "bytes"
        }
      ],
      "name": "WormholeTransferCompleted",
      "type": "event"
    },
    {
      "inputs": [
        {
          "internalType": "bytes32",
          "name": "destination",
          "type": "bytes32"
        }
      ],
      "name": "testTransfer",
      "outputs": [],
      "stateMutability": "payable",
      "type": "function"
    },
    {
      "inputs": [
        {
          "internalType": "bytes32",
          "name": "destination",
          "type": "bytes32"
        },
        {
          "internalType": "bytes",
          "name": "payload",
          "type": "bytes"
        }
      ],
      "name": "testTransferWithPayload",
      "outputs": [],
      "stateMutability": "payable",
      "type": "function"
    },
    {
      "inputs": [
        {
          "internalType": "bytes",
          "name": "payload",
          "type": "bytes"
        }
      ],
      "name": "wormholeTransferERC20",
      "outputs": [],
      "stateMutability": "nonpayable",
      "type": "function"
    }
  ],
  "transactionHash": "0x0004ae06a89e81c7c84930b056f9663f56a1a97333a7c394adf8a048e9f20933",
  "args": [
    "0x599CEa2204B4FaECd584Ab1F2b6aCA137a0afbE8"
  ],
  "numDeployments": 3,
  "solcInputHash": "a3ddca467b698b30764178ec44548f8b",
  "bytecode": "0x608060405234801561001057600080fd5b50604051610a5b380380610a5b833981810160405281019061003291906100ed565b806000806101000a81548173ffffffffffffffffffffffffffffffffffffffff021916908373ffffffffffffffffffffffffffffffffffffffff1602179055505061011a565b600080fd5b600073ffffffffffffffffffffffffffffffffffffffff82169050919050565b60006100a88261007d565b9050919050565b60006100ba8261009d565b9050919050565b6100ca816100af565b81146100d557600080fd5b50565b6000815190506100e7816100c1565b92915050565b60006020828403121561010357610102610078565b5b6000610111848285016100d8565b91505092915050565b610932806101296000396000f3fe6080604052600436106100345760003560e01c8063082e4660146100395780632f60f70514610055578063f53774ab14610071575b600080fd5b610053600480360381019061004e9190610335565b61009a565b005b61006f600480360381019061006a91906104a8565b610160565b005b34801561007d57600080fd5b5061009860048036038101906100939190610504565b61020a565b005b60008054906101000a900473ffffffffffffffffffffffffffffffffffffffff1673ffffffffffffffffffffffffffffffffffffffff1663bee9cdfc3460108460016040516020016100eb9061061c565b6040516020818303038152906040526040518663ffffffff1660e01b81526004016101199493929190610768565b60206040518083038185885af1158015610137573d6000803e3d6000fd5b50505050506040513d601f19601f8201168201806040525081019061015c91906107f4565b5050565b60008054906101000a900473ffffffffffffffffffffffffffffffffffffffff1673ffffffffffffffffffffffffffffffffffffffff1663bee9cdfc346010856001866040518663ffffffff1660e01b81526004016101c29493929190610768565b60206040518083038185885af11580156101e0573d6000803e3d6000fd5b50505050506040513d601f19601f8201168201806040525081019061020591906107f4565b505050565b60008060009054906101000a900473ffffffffffffffffffffffffffffffffffffffff1673ffffffffffffffffffffffffffffffffffffffff1663c3f511c1836040518263ffffffff1660e01b81526004016102669190610821565b6000604051808303816000875af1158015610285573d6000803e3d6000fd5b505050506040513d6000823e3d601f19601f820116820180604052508101906102ae91906108b3565b90507fe29ea56e364037e40b08d917432f4c85cfede3612457eb5e3eae34f8e4bda5a6816040516102df9190610821565b60405180910390a15050565b6000604051905090565b600080fd5b600080fd5b6000819050919050565b610312816102ff565b811461031d57600080fd5b50565b60008135905061032f81610309565b92915050565b60006020828403121561034b5761034a6102f5565b5b600061035984828501610320565b91505092915050565b600080fd5b600080fd5b6000601f19601f8301169050919050565b7f4e487b7100000000000000000000000000000000000000000000000000000000600052604160045260246000fd5b6103b58261036c565b810181811067ffffffffffffffff821117156103d4576103d361037d565b5b80604052505050565b60006103e76102eb565b90506103f382826103ac565b919050565b600067ffffffffffffffff8211156104135761041261037d565b5b61041c8261036c565b9050602081019050919050565b82818337600083830152505050565b600061044b610446846103f8565b6103dd565b90508281526020810184848401111561046757610466610367565b5b610472848285610429565b509392505050565b600082601f83011261048f5761048e610362565b5b813561049f848260208601610438565b91505092915050565b600080604083850312156104bf576104be6102f5565b5b60006104cd85828601610320565b925050602083013567ffffffffffffffff8111156104ee576104ed6102fa565b5b6104fa8582860161047a565b9150509250929050565b60006020828403121561051a576105196102f5565b5b600082013567ffffffffffffffff811115610538576105376102fa565b5b6105448482850161047a565b91505092915050565b600082825260208201905092915050565b7f7b2022706172656e7473223a20312c2022696e746572696f72223a207b20225860008201527f32223a205b207b202250617261636861696e223a20383838207d2c207b20224160208201527f63636f756e744b65793230223a2022307833353442313044343765383441303060408201527f3662394537653636413232394431373445384646324130363322207d205d7d7d606082015250565b600061060660808361054d565b91506106118261055e565b608082019050919050565b60006020820190508181036000830152610635816105f9565b9050919050565b6000819050919050565b600061ffff82169050919050565b6000819050919050565b600061067961067461066f8461063c565b610654565b610646565b9050919050565b6106898161065e565b82525050565b610698816102ff565b82525050565b6000819050919050565b600063ffffffff82169050919050565b60006106d36106ce6106c98461069e565b610654565b6106a8565b9050919050565b6106e3816106b8565b82525050565b600081519050919050565b600082825260208201905092915050565b60005b83811015610723578082015181840152602081019050610708565b60008484015250505050565b600061073a826106e9565b61074481856106f4565b9350610754818560208601610705565b61075d8161036c565b840191505092915050565b600060808201905061077d6000830187610680565b61078a602083018661068f565b61079760408301856106da565b81810360608301526107a9818461072f565b905095945050505050565b600067ffffffffffffffff82169050919050565b6107d1816107b4565b81146107dc57600080fd5b50565b6000815190506107ee816107c8565b92915050565b60006020828403121561080a576108096102f5565b5b6000610818848285016107df565b91505092915050565b6000602082019050818103600083015261083b818461072f565b905092915050565b6000610856610851846103f8565b6103dd565b90508281526020810184848401111561087257610871610367565b5b61087d848285610705565b509392505050565b600082601f83011261089a57610899610362565b5b81516108aa848260208601610843565b91505092915050565b6000602082840312156108c9576108c86102f5565b5b600082015167ffffffffffffffff8111156108e7576108e66102fa565b5b6108f384828501610885565b9150509291505056fea26469706673582212207eb0bacb6978803ee0e3fad00c5dc33c894eb23eb3b7f3442854b74adc8ad0db64736f6c63430008120033",
  "devdoc": {
    "kind": "dev",
    "methods": {},
    "version": 1
  },
  "userdoc": {
    "kind": "user",
    "methods": {},
    "version": 1
  },
  "storageLayout": {
    "storage": [
      {
        "astId": 83,
        "contract": "contracts/TokenTransferTest.sol:TokenTransferTest",
        "label": "tbridge",
        "offset": 0,
        "slot": "0",
        "type": "t_contract(ITokenBridge)557"
      }
    ],
    "types": {
      "t_contract(ITokenBridge)557": {
        "encoding": "inplace",
        "label": "contract ITokenBridge",
        "numberOfBytes": "20"
      }
    }
  }
}