{
  "address": "0x242Ce7480e8892AAa64fa6857FfbF490Bb85eb10",
  "abi": [
    {
      "inputs": [
        {
          "internalType": "contract ITokenBridge",
          "name": "_tbridge",
          "type": "address"
        }
      ],
      "stateMutability": "nonpayable",
      "type": "constructor"
    },
    {
      "inputs": [
        {
          "internalType": "bytes32",
          "name": "destination",
          "type": "bytes32"
        }
      ],
      "name": "testTransfer",
      "outputs": [],
      "stateMutability": "payable",
      "type": "function"
    },
    {
      "inputs": [
        {
          "internalType": "bytes32",
          "name": "destination",
          "type": "bytes32"
        },
        {
          "internalType": "bytes",
          "name": "payload",
          "type": "bytes"
        }
      ],
      "name": "testTransferWithPayload",
      "outputs": [],
      "stateMutability": "nonpayable",
      "type": "function"
    },
    {
      "inputs": [
        {
          "internalType": "bytes",
          "name": "payload",
          "type": "bytes"
        }
      ],
      "name": "wormholeTransferERC20",
      "outputs": [],
      "stateMutability": "nonpayable",
      "type": "function"
    }
  ],
  "transactionHash": "0xca9d556850215e233de55c7f6dbd24fd91c6456a4f67125458fd9678bdf29095",
  "args": [
    "0xbc976D4b9D57E57c3cA52e1Fd136C45FF7955A96"
  ],
  "numDeployments": 1,
  "solcInputHash": "4a87275578fe061a1372b6a65a54977a",
  "bytecode": "0x608060405234801561001057600080fd5b50604051610a34380380610a34833981810160405281019061003291906100ed565b806000806101000a81548173ffffffffffffffffffffffffffffffffffffffff021916908373ffffffffffffffffffffffffffffffffffffffff1602179055505061011a565b600080fd5b600073ffffffffffffffffffffffffffffffffffffffff82169050919050565b60006100a88261007d565b9050919050565b60006100ba8261009d565b9050919050565b6100ca816100af565b81146100d557600080fd5b50565b6000815190506100e7816100c1565b92915050565b60006020828403121561010357610102610078565b5b6000610111848285016100d8565b91505092915050565b61090b806101296000396000f3fe6080604052600436106100345760003560e01c8063082e4660146100395780632f60f70514610055578063f53774ab1461007e575b600080fd5b610053600480360381019061004e919061030e565b6100a7565b005b34801561006157600080fd5b5061007c60048036038101906100779190610481565b61016d565b005b34801561008a57600080fd5b506100a560048036038101906100a091906104dd565b61021f565b005b60008054906101000a900473ffffffffffffffffffffffffffffffffffffffff1673ffffffffffffffffffffffffffffffffffffffff1663bee9cdfc3460108460016040516020016100f8906105f5565b6040516020818303038152906040526040518663ffffffff1660e01b81526004016101269493929190610741565b60206040518083038185885af1158015610144573d6000803e3d6000fd5b50505050506040513d601f19601f8201168201806040525081019061016991906107cd565b5050565b60008054906101000a900473ffffffffffffffffffffffffffffffffffffffff1673ffffffffffffffffffffffffffffffffffffffff1663bee9cdfc670de0b6b3a76400006010856001866040518663ffffffff1660e01b81526004016101d79493929190610741565b60206040518083038185885af11580156101f5573d6000803e3d6000fd5b50505050506040513d601f19601f8201168201806040525081019061021a91906107cd565b505050565b60008054906101000a900473ffffffffffffffffffffffffffffffffffffffff1673ffffffffffffffffffffffffffffffffffffffff1663c3f511c1826040518263ffffffff1660e01b815260040161027891906107fa565b6000604051808303816000875af1158015610297573d6000803e3d6000fd5b505050506040513d6000823e3d601f19601f820116820180604052508101906102c0919061088c565b5050565b6000604051905090565b600080fd5b600080fd5b6000819050919050565b6102eb816102d8565b81146102f657600080fd5b50565b600081359050610308816102e2565b92915050565b600060208284031215610324576103236102ce565b5b6000610332848285016102f9565b91505092915050565b600080fd5b600080fd5b6000601f19601f8301169050919050565b7f4e487b7100000000000000000000000000000000000000000000000000000000600052604160045260246000fd5b61038e82610345565b810181811067ffffffffffffffff821117156103ad576103ac610356565b5b80604052505050565b60006103c06102c4565b90506103cc8282610385565b919050565b600067ffffffffffffffff8211156103ec576103eb610356565b5b6103f582610345565b9050602081019050919050565b82818337600083830152505050565b600061042461041f846103d1565b6103b6565b9050828152602081018484840111156104405761043f610340565b5b61044b848285610402565b509392505050565b600082601f8301126104685761046761033b565b5b8135610478848260208601610411565b91505092915050565b60008060408385031215610498576104976102ce565b5b60006104a6858286016102f9565b925050602083013567ffffffffffffffff8111156104c7576104c66102d3565b5b6104d385828601610453565b9150509250929050565b6000602082840312156104f3576104f26102ce565b5b600082013567ffffffffffffffff811115610511576105106102d3565b5b61051d84828501610453565b91505092915050565b600082825260208201905092915050565b7f7b2022706172656e7473223a20312c2022696e746572696f72223a207b20225860008201527f32223a205b207b202250617261636861696e223a20383838207d2c207b20224160208201527f63636f756e744b65793230223a2022307833353442313044343765383441303060408201527f3662394537653636413232394431373445384646324130363322207d205d7d7d606082015250565b60006105df608083610526565b91506105ea82610537565b608082019050919050565b6000602082019050818103600083015261060e816105d2565b9050919050565b6000819050919050565b600061ffff82169050919050565b6000819050919050565b600061065261064d61064884610615565b61062d565b61061f565b9050919050565b61066281610637565b82525050565b610671816102d8565b82525050565b6000819050919050565b600063ffffffff82169050919050565b60006106ac6106a76106a284610677565b61062d565b610681565b9050919050565b6106bc81610691565b82525050565b600081519050919050565b600082825260208201905092915050565b60005b838110156106fc5780820151818401526020810190506106e1565b60008484015250505050565b6000610713826106c2565b61071d81856106cd565b935061072d8185602086016106de565b61073681610345565b840191505092915050565b60006080820190506107566000830187610659565b6107636020830186610668565b61077060408301856106b3565b81810360608301526107828184610708565b905095945050505050565b600067ffffffffffffffff82169050919050565b6107aa8161078d565b81146107b557600080fd5b50565b6000815190506107c7816107a1565b92915050565b6000602082840312156107e3576107e26102ce565b5b60006107f1848285016107b8565b91505092915050565b600060208201905081810360008301526108148184610708565b905092915050565b600061082f61082a846103d1565b6103b6565b90508281526020810184848401111561084b5761084a610340565b5b6108568482856106de565b509392505050565b600082601f8301126108735761087261033b565b5b815161088384826020860161081c565b91505092915050565b6000602082840312156108a2576108a16102ce565b5b600082015167ffffffffffffffff8111156108c0576108bf6102d3565b5b6108cc8482850161085e565b9150509291505056fea2646970667358221220525dd8de00b108d654451b55a0cfda643c2572f04a732eaac92061eb5647348f64736f6c63430008120033",
  "devdoc": {
    "kind": "dev",
    "methods": {},
    "version": 1
  },
  "userdoc": {
    "kind": "user",
    "methods": {},
    "version": 1
  },
  "storageLayout": {
    "storage": [
      {
        "astId": 83,
        "contract": "contracts/TokenTransferTest.sol:TokenTransferTest",
        "label": "tbridge",
        "offset": 0,
        "slot": "0",
        "type": "t_contract(ITokenBridge)547"
      }
    ],
    "types": {
      "t_contract(ITokenBridge)547": {
        "encoding": "inplace",
        "label": "contract ITokenBridge",
        "numberOfBytes": "20"
      }
    }
  }
}